{
  "_format": "hh-sol-artifact-1",
  "contractName": "AgriChain",
  "sourceName": "contracts/AgriChain.sol",
  "abi": [
    {
      "inputs": [
        {
          "internalType": "address",
          "name": "admin",
          "type": "address"
        }
      ],
      "stateMutability": "nonpayable",
      "type": "constructor"
    },
    {
      "inputs": [
        {
          "internalType": "address",
          "name": "owner",
          "type": "address"
        }
      ],
      "name": "OwnableInvalidOwner",
      "type": "error"
    },
    {
      "inputs": [
        {
          "internalType": "address",
          "name": "account",
          "type": "address"
        }
      ],
      "name": "OwnableUnauthorizedAccount",
      "type": "error"
    },
    {
      "inputs": [],
      "name": "ReentrancyGuardReentrantCall",
      "type": "error"
    },
    {
      "anonymous": false,
      "inputs": [
        {
          "indexed": true,
          "internalType": "address",
          "name": "admin",
          "type": "address"
        },
        {
          "indexed": true,
          "internalType": "address",
          "name": "farmer",
          "type": "address"
        },
        {
          "indexed": false,
          "internalType": "uint256",
          "name": "feeAmount",
          "type": "uint256"
        },
        {
          "indexed": false,
          "internalType": "uint256",
          "name": "grossAmount",
          "type": "uint256"
        }
      ],
      "name": "AdminFeePaid",
      "type": "event"
    },
    {
      "anonymous": false,
      "inputs": [
        {
          "indexed": true,
          "internalType": "address",
          "name": "admin",
          "type": "address"
        }
      ],
      "name": "ContractPaused",
      "type": "event"
    },
    {
      "anonymous": false,
      "inputs": [
        {
          "indexed": true,
          "internalType": "address",
          "name": "admin",
          "type": "address"
        }
      ],
      "name": "ContractUnpaused",
      "type": "event"
    },
    {
      "anonymous": false,
      "inputs": [
        {
          "indexed": true,
          "internalType": "uint256",
          "name": "cropId",
          "type": "uint256"
        },
        {
          "indexed": true,
          "internalType": "address",
          "name": "farmer",
          "type": "address"
        },
        {
          "indexed": false,
          "internalType": "uint256",
          "name": "pricePerUnit",
          "type": "uint256"
        },
        {
          "indexed": false,
          "internalType": "uint256",
          "name": "quantity",
          "type": "uint256"
        },
        {
          "indexed": false,
          "internalType": "uint256",
          "name": "expiry",
          "type": "uint256"
        },
        {
          "indexed": false,
          "internalType": "string",
          "name": "offchainId",
          "type": "string"
        }
      ],
      "name": "CropListed",
      "type": "event"
    },
    {
      "anonymous": false,
      "inputs": [
        {
          "indexed": true,
          "internalType": "uint256",
          "name": "cropId",
          "type": "uint256"
        },
        {
          "indexed": true,
          "internalType": "address",
          "name": "buyer",
          "type": "address"
        },
        {
          "indexed": false,
          "internalType": "uint256",
          "name": "units",
          "type": "uint256"
        },
        {
          "indexed": false,
          "internalType": "uint256",
          "name": "value",
          "type": "uint256"
        }
      ],
      "name": "CropPurchased",
      "type": "event"
    },
    {
      "anonymous": false,
      "inputs": [
        {
          "indexed": true,
          "internalType": "address",
          "name": "previousOwner",
          "type": "address"
        },
        {
          "indexed": true,
          "internalType": "address",
          "name": "newOwner",
          "type": "address"
        }
      ],
      "name": "OwnershipTransferred",
      "type": "event"
    },
    {
      "anonymous": false,
      "inputs": [
        {
          "indexed": true,
          "internalType": "address",
          "name": "wallet",
          "type": "address"
        },
        {
          "indexed": false,
          "internalType": "bool",
          "name": "status",
          "type": "bool"
        }
      ],
      "name": "WalletBlacklisted",
      "type": "event"
    },
    {
      "inputs": [],
      "name": "ADMIN_FEE_BPS",
      "outputs": [
        {
          "internalType": "uint256",
          "name": "",
          "type": "uint256"
        }
      ],
      "stateMutability": "view",
      "type": "function"
    },
    {
      "inputs": [],
      "name": "BPS_DENOMINATOR",
      "outputs": [
        {
          "internalType": "uint256",
          "name": "",
          "type": "uint256"
        }
      ],
      "stateMutability": "view",
      "type": "function"
    },
    {
      "inputs": [
        {
          "internalType": "address",
          "name": "",
          "type": "address"
        }
      ],
      "name": "blacklisted",
      "outputs": [
        {
          "internalType": "bool",
          "name": "",
          "type": "bool"
        }
      ],
      "stateMutability": "view",
      "type": "function"
    },
    {
      "inputs": [],
      "name": "cropCount",
      "outputs": [
        {
          "internalType": "uint256",
          "name": "",
          "type": "uint256"
        }
      ],
      "stateMutability": "view",
      "type": "function"
    },
    {
      "inputs": [
        {
          "internalType": "uint256",
          "name": "",
          "type": "uint256"
        }
      ],
      "name": "crops",
      "outputs": [
        {
          "internalType": "uint256",
          "name": "id",
          "type": "uint256"
        },
        {
          "internalType": "address",
          "name": "farmer",
          "type": "address"
        },
        {
          "internalType": "uint256",
          "name": "pricePerUnit",
          "type": "uint256"
        },
        {
          "internalType": "uint256",
          "name": "quantity",
          "type": "uint256"
        },
        {
          "internalType": "uint256",
          "name": "expiry",
          "type": "uint256"
        },
        {
          "internalType": "bool",
          "name": "isSold",
          "type": "bool"
        },
        {
          "internalType": "address",
          "name": "buyer",
          "type": "address"
        },
        {
          "internalType": "string",
          "name": "offchainId",
          "type": "string"
        }
      ],
      "stateMutability": "view",
      "type": "function"
    },
    {
      "inputs": [
        {
          "internalType": "address",
          "name": "farmer",
          "type": "address"
        },
        {
          "internalType": "uint256",
          "name": "pricePerUnit",
          "type": "uint256"
        },
        {
          "internalType": "uint256",
          "name": "quantity",
          "type": "uint256"
        },
        {
          "internalType": "uint256",
          "name": "expiry",
          "type": "uint256"
        },
        {
          "internalType": "string",
          "name": "offchainId",
          "type": "string"
        }
      ],
      "name": "listCrop",
      "outputs": [],
      "stateMutability": "nonpayable",
      "type": "function"
    },
    {
      "inputs": [],
      "name": "owner",
      "outputs": [
        {
          "internalType": "address",
          "name": "",
          "type": "address"
        }
      ],
      "stateMutability": "view",
      "type": "function"
    },
    {
      "inputs": [],
      "name": "pause",
      "outputs": [],
      "stateMutability": "nonpayable",
      "type": "function"
    },
    {
      "inputs": [],
      "name": "paused",
      "outputs": [
        {
          "internalType": "bool",
          "name": "",
          "type": "bool"
        }
      ],
      "stateMutability": "view",
      "type": "function"
    },
    {
      "inputs": [
        {
          "internalType": "uint256[]",
          "name": "cropIds",
          "type": "uint256[]"
        },
        {
          "internalType": "uint256[]",
          "name": "units",
          "type": "uint256[]"
        }
      ],
      "name": "purchaseBatch",
      "outputs": [],
      "stateMutability": "payable",
      "type": "function"
    },
    {
      "inputs": [
        {
          "internalType": "uint256",
          "name": "cropId",
          "type": "uint256"
        }
      ],
      "name": "purchaseCrop",
      "outputs": [],
      "stateMutability": "payable",
      "type": "function"
    },
    {
      "inputs": [
        {
          "internalType": "uint256",
          "name": "cropId",
          "type": "uint256"
        },
        {
          "internalType": "uint256",
          "name": "units",
          "type": "uint256"
        }
      ],
      "name": "purchaseUnits",
      "outputs": [],
      "stateMutability": "payable",
      "type": "function"
    },
    {
      "inputs": [],
      "name": "renounceOwnership",
      "outputs": [],
      "stateMutability": "nonpayable",
      "type": "function"
    },
    {
      "inputs": [
        {
          "internalType": "address",
          "name": "wallet",
          "type": "address"
        },
        {
          "internalType": "bool",
          "name": "status",
          "type": "bool"
        }
      ],
      "name": "setBlacklist",
      "outputs": [],
      "stateMutability": "nonpayable",
      "type": "function"
    },
    {
      "inputs": [
        {
          "internalType": "address",
          "name": "newOwner",
          "type": "address"
        }
      ],
      "name": "transferOwnership",
      "outputs": [],
      "stateMutability": "nonpayable",
      "type": "function"
    },
    {
      "inputs": [],
      "name": "unpause",
      "outputs": [],
      "stateMutability": "nonpayable",
      "type": "function"
    }
  ],
  "bytecode": "0x60806040523480156200001157600080fd5b5060405162002dc638038062002dc68339818101604052810190620000379190620001fb565b80600073ffffffffffffffffffffffffffffffffffffffff168173ffffffffffffffffffffffffffffffffffffffff1603620000ad5760006040517f1e4fbdf7000000000000000000000000000000000000000000000000000000008152600401620000a491906200023e565b60405180910390fd5b620000be81620000cd60201b60201c565b5060018081905550506200025b565b60008060009054906101000a900473ffffffffffffffffffffffffffffffffffffffff169050816000806101000a81548173ffffffffffffffffffffffffffffffffffffffff021916908373ffffffffffffffffffffffffffffffffffffffff1602179055508173ffffffffffffffffffffffffffffffffffffffff168173ffffffffffffffffffffffffffffffffffffffff167f8be0079c531659141344cd1fd0a4f28419497f9722a3daafe3b4186f6b6457e060405160405180910390a35050565b600080fd5b600073ffffffffffffffffffffffffffffffffffffffff82169050919050565b6000620001c38262000196565b9050919050565b620001d581620001b6565b8114620001e157600080fd5b50565b600081519050620001f581620001ca565b92915050565b60006020828403121562000214576200021362000191565b5b60006200022484828501620001e4565b91505092915050565b6200023881620001b6565b82525050565b60006020820190506200025560008301846200022d565b92915050565b612b5b806200026b6000396000f3fe6080604052600436106100f35760003560e01c80639dfa69381161008a578063dbac26e911610059578063dbac26e9146102a8578063dfd55a2c146102e5578063e1a4521814610310578063f2fde38b1461033b576100f3565b80639dfa69381461021c578063ac25625614610245578063c88f070714610270578063c901de1a1461028c576100f3565b806370c9f1a5116100c657806370c9f1a51461017f578063715018a6146101c35780638456cb59146101da5780638da5cb5b146101f1576100f3565b8063153b0d1e146100f85780632a748097146101215780633f4ba83a1461013d5780635c975abb14610154575b600080fd5b34801561010457600080fd5b5061011f600480360381019061011a9190611a12565b610364565b005b61013b60048036038101906101369190611a88565b610415565b005b34801561014957600080fd5b50610152610533565b005b34801561016057600080fd5b5061016961059b565b6040516101769190611ac4565b60405180910390f35b34801561018b57600080fd5b506101a660048036038101906101a19190611a88565b6105ae565b6040516101ba989796959493929190611b8d565b60405180910390f35b3480156101cf57600080fd5b506101d86106cb565b005b3480156101e657600080fd5b506101ef6106df565b005b3480156101fd57600080fd5b50610206610747565b6040516102139190611c12565b60405180910390f35b34801561022857600080fd5b50610243600480360381019061023e9190611c92565b610770565b005b34801561025157600080fd5b5061025a610b4e565b6040516102679190611d2c565b60405180910390f35b61028a60048036038101906102859190611d47565b610b53565b005b6102a660048036038101906102a19190611ddd565b610c50565b005b3480156102b457600080fd5b506102cf60048036038101906102ca9190611e5e565b61115d565b6040516102dc9190611ac4565b60405180910390f35b3480156102f157600080fd5b506102fa61117d565b6040516103079190611d2c565b60405180910390f35b34801561031c57600080fd5b50610325611183565b6040516103329190611d2c565b60405180910390f35b34801561034757600080fd5b50610362600480360381019061035d9190611e5e565b611189565b005b61036c61120f565b80600460008473ffffffffffffffffffffffffffffffffffffffff1673ffffffffffffffffffffffffffffffffffffffff16815260200190815260200160002060006101000a81548160ff0219169083151502179055508173ffffffffffffffffffffffffffffffffffffffff167f6e5e68466043e631629f40501adefa55dc080619353e9256cecbb1cc4997c185826040516104099190611ac4565b60405180910390a25050565b61041d611296565b600560009054906101000a900460ff161561046d576040517f08c379a000000000000000000000000000000000000000000000000000000000815260040161046490611ed7565b60405180910390fd5b33600460008273ffffffffffffffffffffffffffffffffffffffff1673ffffffffffffffffffffffffffffffffffffffff16815260200190815260200160002060009054906101000a900460ff16156104fb576040517f08c379a00000000000000000000000000000000000000000000000000000000081526004016104f290611f43565b60405180910390fd5b600060036000848152602001908152602001600020905060008160030154905061052584826112dc565b5050506105306113d2565b50565b61053b61120f565b6000600560006101000a81548160ff0219169083151502179055503373ffffffffffffffffffffffffffffffffffffffff167f5b65b0c1363b3003db9bcc5e1fd8805a6d6bf5bf6dc9d3431ee4494cd7d1176660405160405180910390a2565b600560009054906101000a900460ff1681565b60036020528060005260406000206000915090508060000154908060010160009054906101000a900473ffffffffffffffffffffffffffffffffffffffff16908060020154908060030154908060040154908060050160009054906101000a900460ff16908060050160019054906101000a900473ffffffffffffffffffffffffffffffffffffffff169080600601805461064890611f92565b80601f016020809104026020016040519081016040528092919081815260200182805461067490611f92565b80156106c15780601f10610696576101008083540402835291602001916106c1565b820191906000526020600020905b8154815290600101906020018083116106a457829003601f168201915b5050505050905088565b6106d361120f565b6106dd60006113db565b565b6106e761120f565b6001600560006101000a81548160ff0219169083151502179055503373ffffffffffffffffffffffffffffffffffffffff167f81990fd9a5c552b8e3677917d8a03c07678f0d2cb68f88b634aca2022e9bd19f60405160405180910390a2565b60008060009054906101000a900473ffffffffffffffffffffffffffffffffffffffff16905090565b61077861120f565b600560009054906101000a900460ff16156107c8576040517f08c379a00000000000000000000000000000000000000000000000000000000081526004016107bf90611ed7565b60405180910390fd5b85600460008273ffffffffffffffffffffffffffffffffffffffff1673ffffffffffffffffffffffffffffffffffffffff16815260200190815260200160002060009054906101000a900460ff1615610856576040517f08c379a000000000000000000000000000000000000000000000000000000000815260040161084d90611f43565b60405180910390fd5b428411610898576040517f08c379a000000000000000000000000000000000000000000000000000000000815260040161088f9061200f565b60405180910390fd5b600086116108db576040517f08c379a00000000000000000000000000000000000000000000000000000000081526004016108d29061207b565b60405180910390fd5b6000851161091e576040517f08c379a0000000000000000000000000000000000000000000000000000000008152600401610915906120e7565b60405180910390fd5b6001600260008282546109319190612136565b9250508190555060405180610100016040528060025481526020018873ffffffffffffffffffffffffffffffffffffffff168152602001878152602001868152602001858152602001600015158152602001600073ffffffffffffffffffffffffffffffffffffffff16815260200184848080601f016020809104026020016040519081016040528093929190818152602001838380828437600081840152601f19601f820116905080830192505050505050508152506003600060025481526020019081526020016000206000820151816000015560208201518160010160006101000a81548173ffffffffffffffffffffffffffffffffffffffff021916908373ffffffffffffffffffffffffffffffffffffffff16021790555060408201518160020155606082015181600301556080820151816004015560a08201518160050160006101000a81548160ff02191690831515021790555060c08201518160050160016101000a81548173ffffffffffffffffffffffffffffffffffffffff021916908373ffffffffffffffffffffffffffffffffffffffff16021790555060e0820151816006019081610ae89190612345565b509050508673ffffffffffffffffffffffffffffffffffffffff166002547fe1079449428113647f4176cd8ba129f3a87ead1951129310615f8dff3bd5e9a68888888888604051610b3d959493929190612453565b60405180910390a350505050505050565b60c881565b610b5b611296565b600560009054906101000a900460ff1615610bab576040517f08c379a0000000000000000000000000000000000000000000000000000000008152600401610ba290611ed7565b60405180910390fd5b33600460008273ffffffffffffffffffffffffffffffffffffffff1673ffffffffffffffffffffffffffffffffffffffff16815260200190815260200160002060009054906101000a900460ff1615610c39576040517f08c379a0000000000000000000000000000000000000000000000000000000008152600401610c3090611f43565b60405180910390fd5b610c4383836112dc565b50610c4c6113d2565b5050565b610c58611296565b600560009054906101000a900460ff1615610ca8576040517f08c379a0000000000000000000000000000000000000000000000000000000008152600401610c9f90611ed7565b60405180910390fd5b33600460008273ffffffffffffffffffffffffffffffffffffffff1673ffffffffffffffffffffffffffffffffffffffff16815260200190815260200160002060009054906101000a900460ff1615610d36576040517f08c379a0000000000000000000000000000000000000000000000000000000008152600401610d2d90611f43565b60405180910390fd5b60008585905011610d7c576040517f08c379a0000000000000000000000000000000000000000000000000000000008152600401610d73906124ed565b60405180910390fd5b828290508585905014610dc4576040517f08c379a0000000000000000000000000000000000000000000000000000000008152600401610dbb90612559565b60405180910390fd5b60006003600087876000818110610dde57610ddd612579565b5b90506020020135815260200190815260200160002060010160009054906101000a900473ffffffffffffffffffffffffffffffffffffffff169050600073ffffffffffffffffffffffffffffffffffffffff168173ffffffffffffffffffffffffffffffffffffffff1603610e88576040517f08c379a0000000000000000000000000000000000000000000000000000000008152600401610e7f906125f4565b60405180910390fd5b6000805b87879050811015610fde576000600360008a8a85818110610eb057610eaf612579565b5b90506020020135815260200190815260200160002090506000816000015403610f0e576040517f08c379a0000000000000000000000000000000000000000000000000000000008152600401610f05906125f4565b60405180910390fd5b8373ffffffffffffffffffffffffffffffffffffffff168160010160009054906101000a900473ffffffffffffffffffffffffffffffffffffffff1673ffffffffffffffffffffffffffffffffffffffff1614610fa0576040517f08c379a0000000000000000000000000000000000000000000000000000000008152600401610f9790612660565b60405180910390fd5b610fc381888885818110610fb757610fb6612579565b5b9050602002013561149f565b83610fce9190612136565b9250508080600101915050610e8c565b50803414611021576040517f08c379a0000000000000000000000000000000000000000000000000000000008152600401611018906126cc565b60405180910390fd5b60005b87879050811015611141576000600360008a8a8581811061104857611047612579565b5b9050602002013581526020019081526020016000209050600087878481811061107457611073612579565b5b90506020020135826002015461108a91906126ec565b90506110af828989868181106110a3576110a2612579565b5b905060200201356116d2565b3373ffffffffffffffffffffffffffffffffffffffff168a8a858181106110d9576110d8612579565b5b905060200201357f0a4352b1d4903ed52cfab309159e5f76ba15237a9c58444bb4b875a873c713f58a8a8781811061111457611113612579565b5b905060200201358460405161112a92919061272e565b60405180910390a350508080600101915050611024565b5061114c828261175e565b5050506111576113d2565b50505050565b60046020528060005260406000206000915054906101000a900460ff1681565b60025481565b61271081565b61119161120f565b600073ffffffffffffffffffffffffffffffffffffffff168173ffffffffffffffffffffffffffffffffffffffff16036112035760006040517f1e4fbdf70000000000000000000000000000000000000000000000000000000081526004016111fa9190611c12565b60405180910390fd5b61120c816113db565b50565b61121761196a565b73ffffffffffffffffffffffffffffffffffffffff16611235610747565b73ffffffffffffffffffffffffffffffffffffffff16146112945761125861196a565b6040517f118cdaa700000000000000000000000000000000000000000000000000000000815260040161128b9190611c12565b60405180910390fd5b565b6002600154036112d2576040517f3ee5aeb500000000000000000000000000000000000000000000000000000000815260040160405180910390fd5b6002600181905550565b600060036000848152602001908152602001600020905060006112ff828461149f565b9050803414611343576040517f08c379a000000000000000000000000000000000000000000000000000000000815260040161133a906126cc565b60405180910390fd5b61134d82846116d2565b61137b8260010160009054906101000a900473ffffffffffffffffffffffffffffffffffffffff168261175e565b3373ffffffffffffffffffffffffffffffffffffffff16847f0a4352b1d4903ed52cfab309159e5f76ba15237a9c58444bb4b875a873c713f585846040516113c492919061272e565b60405180910390a350505050565b60018081905550565b60008060009054906101000a900473ffffffffffffffffffffffffffffffffffffffff169050816000806101000a81548173ffffffffffffffffffffffffffffffffffffffff021916908373ffffffffffffffffffffffffffffffffffffffff1602179055508173ffffffffffffffffffffffffffffffffffffffff168173ffffffffffffffffffffffffffffffffffffffff167f8be0079c531659141344cd1fd0a4f28419497f9722a3daafe3b4186f6b6457e060405160405180910390a35050565b6000808360000154036114e7576040517f08c379a00000000000000000000000000000000000000000000000000000000081526004016114de906125f4565b60405180910390fd5b8260050160009054906101000a900460ff1615611539576040517f08c379a0000000000000000000000000000000000000000000000000000000008152600401611530906127a3565b60405180910390fd5b6000821161157c576040517f08c379a00000000000000000000000000000000000000000000000000000000081526004016115739061280f565b60405180910390fd5b82600301548211156115c3576040517f08c379a00000000000000000000000000000000000000000000000000000000081526004016115ba9061287b565b60405180910390fd5b42836004015411611609576040517f08c379a0000000000000000000000000000000000000000000000000000000008152600401611600906128e7565b60405180910390fd5b600460008460010160009054906101000a900473ffffffffffffffffffffffffffffffffffffffff1673ffffffffffffffffffffffffffffffffffffffff1673ffffffffffffffffffffffffffffffffffffffff16815260200190815260200160002060009054906101000a900460ff16156116ba576040517f08c379a00000000000000000000000000000000000000000000000000000000081526004016116b190612953565b60405180910390fd5b8183600201546116ca91906126ec565b905092915050565b808260030160008282546116e69190612973565b9250508190555060008260030154036117175760018260050160006101000a81548160ff0219169083151502179055505b338260050160016101000a81548173ffffffffffffffffffffffffffffffffffffffff021916908373ffffffffffffffffffffffffffffffffffffffff1602179055505050565b600061271060c88361177091906126ec565b61177a91906129d6565b90506000818361178a9190612973565b90506000611796610747565b905060008573ffffffffffffffffffffffffffffffffffffffff16836040516117be90612a38565b60006040518083038185875af1925050503d80600081146117fb576040519150601f19603f3d011682016040523d82523d6000602084013e611800565b606091505b5050905080611844576040517f08c379a000000000000000000000000000000000000000000000000000000000815260040161183b90612a99565b60405180910390fd5b60008411156118fb5760008273ffffffffffffffffffffffffffffffffffffffff168560405161187390612a38565b60006040518083038185875af1925050503d80600081146118b0576040519150601f19603f3d011682016040523d82523d6000602084013e6118b5565b606091505b50509050806118f9576040517f08c379a00000000000000000000000000000000000000000000000000000000081526004016118f090612b05565b60405180910390fd5b505b8573ffffffffffffffffffffffffffffffffffffffff168273ffffffffffffffffffffffffffffffffffffffff167f518387e7ae527f057a7b6aadbbd345ec192f05e9c836071c14dee3f404d7eb6f868860405161195a92919061272e565b60405180910390a3505050505050565b600033905090565b600080fd5b600080fd5b600073ffffffffffffffffffffffffffffffffffffffff82169050919050565b60006119a78261197c565b9050919050565b6119b78161199c565b81146119c257600080fd5b50565b6000813590506119d4816119ae565b92915050565b60008115159050919050565b6119ef816119da565b81146119fa57600080fd5b50565b600081359050611a0c816119e6565b92915050565b60008060408385031215611a2957611a28611972565b5b6000611a37858286016119c5565b9250506020611a48858286016119fd565b9150509250929050565b6000819050919050565b611a6581611a52565b8114611a7057600080fd5b50565b600081359050611a8281611a5c565b92915050565b600060208284031215611a9e57611a9d611972565b5b6000611aac84828501611a73565b91505092915050565b611abe816119da565b82525050565b6000602082019050611ad96000830184611ab5565b92915050565b611ae881611a52565b82525050565b611af78161199c565b82525050565b600081519050919050565b600082825260208201905092915050565b60005b83811015611b37578082015181840152602081019050611b1c565b60008484015250505050565b6000601f19601f8301169050919050565b6000611b5f82611afd565b611b698185611b08565b9350611b79818560208601611b19565b611b8281611b43565b840191505092915050565b600061010082019050611ba3600083018b611adf565b611bb0602083018a611aee565b611bbd6040830189611adf565b611bca6060830188611adf565b611bd76080830187611adf565b611be460a0830186611ab5565b611bf160c0830185611aee565b81810360e0830152611c038184611b54565b90509998505050505050505050565b6000602082019050611c276000830184611aee565b92915050565b600080fd5b600080fd5b600080fd5b60008083601f840112611c5257611c51611c2d565b5b8235905067ffffffffffffffff811115611c6f57611c6e611c32565b5b602083019150836001820283011115611c8b57611c8a611c37565b5b9250929050565b60008060008060008060a08789031215611caf57611cae611972565b5b6000611cbd89828a016119c5565b9650506020611cce89828a01611a73565b9550506040611cdf89828a01611a73565b9450506060611cf089828a01611a73565b935050608087013567ffffffffffffffff811115611d1157611d10611977565b5b611d1d89828a01611c3c565b92509250509295509295509295565b6000602082019050611d416000830184611adf565b92915050565b60008060408385031215611d5e57611d5d611972565b5b6000611d6c85828601611a73565b9250506020611d7d85828601611a73565b9150509250929050565b60008083601f840112611d9d57611d9c611c2d565b5b8235905067ffffffffffffffff811115611dba57611db9611c32565b5b602083019150836020820283011115611dd657611dd5611c37565b5b9250929050565b60008060008060408587031215611df757611df6611972565b5b600085013567ffffffffffffffff811115611e1557611e14611977565b5b611e2187828801611d87565b9450945050602085013567ffffffffffffffff811115611e4457611e43611977565b5b611e5087828801611d87565b925092505092959194509250565b600060208284031215611e7457611e73611972565b5b6000611e82848285016119c5565b91505092915050565b7f4d61726b6574706c616365207061757365640000000000000000000000000000600082015250565b6000611ec1601283611b08565b9150611ecc82611e8b565b602082019050919050565b60006020820190508181036000830152611ef081611eb4565b9050919050565b7f57616c6c657420626c61636b6c69737465640000000000000000000000000000600082015250565b6000611f2d601283611b08565b9150611f3882611ef7565b602082019050919050565b60006020820190508181036000830152611f5c81611f20565b9050919050565b7f4e487b7100000000000000000000000000000000000000000000000000000000600052602260045260246000fd5b60006002820490506001821680611faa57607f821691505b602082108103611fbd57611fbc611f63565b5b50919050565b7f457870697279206d757374206265206675747572650000000000000000000000600082015250565b6000611ff9601583611b08565b915061200482611fc3565b602082019050919050565b6000602082019050818103600083015261202881611fec565b9050919050565b7f5072696365207265717569726564000000000000000000000000000000000000600082015250565b6000612065600e83611b08565b91506120708261202f565b602082019050919050565b6000602082019050818103600083015261209481612058565b9050919050565b7f5175616e74697479207265717569726564000000000000000000000000000000600082015250565b60006120d1601183611b08565b91506120dc8261209b565b602082019050919050565b60006020820190508181036000830152612100816120c4565b9050919050565b7f4e487b7100000000000000000000000000000000000000000000000000000000600052601160045260246000fd5b600061214182611a52565b915061214c83611a52565b925082820190508082111561216457612163612107565b5b92915050565b7f4e487b7100000000000000000000000000000000000000000000000000000000600052604160045260246000fd5b60008190508160005260206000209050919050565b60006020601f8301049050919050565b600082821b905092915050565b6000600883026121fb7fffffffffffffffffffffffffffffffffffffffffffffffffffffffffffffffff826121be565b61220586836121be565b95508019841693508086168417925050509392505050565b6000819050919050565b600061224261223d61223884611a52565b61221d565b611a52565b9050919050565b6000819050919050565b61225c83612227565b61227061226882612249565b8484546121cb565b825550505050565b600090565b612285612278565b612290818484612253565b505050565b5b818110156122b4576122a960008261227d565b600181019050612296565b5050565b601f8211156122f9576122ca81612199565b6122d3846121ae565b810160208510156122e2578190505b6122f66122ee856121ae565b830182612295565b50505b505050565b600082821c905092915050565b600061231c600019846008026122fe565b1980831691505092915050565b6000612335838361230b565b9150826002028217905092915050565b61234e82611afd565b67ffffffffffffffff8111156123675761236661216a565b5b6123718254611f92565b61237c8282856122b8565b600060209050601f8311600181146123af576000841561239d578287015190505b6123a78582612329565b86555061240f565b601f1984166123bd86612199565b60005b828110156123e5578489015182556001820191506020850194506020810190506123c0565b8683101561240257848901516123fe601f89168261230b565b8355505b6001600288020188555050505b505050505050565b82818337600083830152505050565b60006124328385611b08565b935061243f838584612417565b61244883611b43565b840190509392505050565b60006080820190506124686000830188611adf565b6124756020830187611adf565b6124826040830186611adf565b8181036060830152612495818486612426565b90509695505050505050565b7f456d707479206261746368000000000000000000000000000000000000000000600082015250565b60006124d7600b83611b08565b91506124e2826124a1565b602082019050919050565b60006020820190508181036000830152612506816124ca565b9050919050565b7f4d69736d61746368656420626174636800000000000000000000000000000000600082015250565b6000612543601083611b08565b915061254e8261250d565b602082019050919050565b6000602082019050818103600083015261257281612536565b9050919050565b7f4e487b7100000000000000000000000000000000000000000000000000000000600052603260045260246000fd5b7f43726f70206e6f7420666f756e64000000000000000000000000000000000000600082015250565b60006125de600e83611b08565b91506125e9826125a8565b602082019050919050565b6000602082019050818103600083015261260d816125d1565b9050919050565b7f446966666572656e74206661726d657200000000000000000000000000000000600082015250565b600061264a601083611b08565b915061265582612614565b602082019050919050565b600060208201905081810360008301526126798161263d565b9050919050565b7f496e636f7272656374207061796d656e74000000000000000000000000000000600082015250565b60006126b6601183611b08565b91506126c182612680565b602082019050919050565b600060208201905081810360008301526126e5816126a9565b9050919050565b60006126f782611a52565b915061270283611a52565b925082820261271081611a52565b9150828204841483151761272757612726612107565b5b5092915050565b60006040820190506127436000830185611adf565b6127506020830184611adf565b9392505050565b7f416c726561647920736f6c640000000000000000000000000000000000000000600082015250565b600061278d600c83611b08565b915061279882612757565b602082019050919050565b600060208201905081810360008301526127bc81612780565b9050919050565b7f556e697473207265717569726564000000000000000000000000000000000000600082015250565b60006127f9600e83611b08565b9150612804826127c3565b602082019050919050565b60006020820190508181036000830152612828816127ec565b9050919050565b7f496e73756666696369656e74207175616e746974790000000000000000000000600082015250565b6000612865601583611b08565b91506128708261282f565b602082019050919050565b6000602082019050818103600083015261289481612858565b9050919050565b7f43726f7020657870697265640000000000000000000000000000000000000000600082015250565b60006128d1600c83611b08565b91506128dc8261289b565b602082019050919050565b60006020820190508181036000830152612900816128c4565b9050919050565b7f4661726d657220626c61636b6c69737465640000000000000000000000000000600082015250565b600061293d601283611b08565b915061294882612907565b602082019050919050565b6000602082019050818103600083015261296c81612930565b9050919050565b600061297e82611a52565b915061298983611a52565b92508282039050818111156129a1576129a0612107565b5b92915050565b7f4e487b7100000000000000000000000000000000000000000000000000000000600052601260045260246000fd5b60006129e182611a52565b91506129ec83611a52565b9250826129fc576129fb6129a7565b5b828204905092915050565b600081905092915050565b50565b6000612a22600083612a07565b9150612a2d82612a12565b600082019050919050565b6000612a4382612a15565b9150819050919050565b7f4661726d6572207061796d656e74206661696c65640000000000000000000000600082015250565b6000612a83601583611b08565b9150612a8e82612a4d565b602082019050919050565b60006020820190508181036000830152612ab281612a76565b9050919050565b7f41646d696e20666565207472616e73666572206661696c656400000000000000600082015250565b6000612aef601983611b08565b9150612afa82612ab9565b602082019050919050565b60006020820190508181036000830152612b1e81612ae2565b905091905056fea2646970667358221220f5e3914506e8baf342568ef63a339e1d1d5e3171ed980b023c4f772257763e3664736f6c63430008180033",
  "linkReferences": {},
  "deployedLinkReferences": {}
}