{
  "_format": "hh-sol-artifact-1",
  "contractName": "AgriChain",
  "sourceName": "contracts/AgriChain.sol",
  "abi": [
    {
      "inputs": [
        {
          "internalType": "address",
          "name": "admin",
          "type": "address"
        }
      ],
      "stateMutability": "nonpayable",
      "type": "constructor"
    },
    {
      "inputs": [
        {
          "internalType": "address",
          "name": "owner",
          "type": "address"
        }
      ],
      "name": "OwnableInvalidOwner",
      "type": "error"
    },
    {
      "inputs": [
        {
          "internalType": "address",
          "name": "account",
          "type": "address"
        }
      ],
      "name": "OwnableUnauthorizedAccount",
      "type": "error"
    },
    {
      "inputs": [],
      "name": "ReentrancyGuardReentrantCall",
      "type": "error"
    },
    {
      "anonymous": false,
      "inputs": [
        {
          "indexed": true,
          "internalType": "address",
          "name": "admin",
          "type": "address"
        }
      ],
      "name": "ContractPaused",
      "type": "event"
    },
    {
      "anonymous": false,
      "inputs": [
        {
          "indexed": true,
          "internalType": "address",
          "name": "admin",
          "type": "address"
        }
      ],
      "name": "ContractUnpaused",
      "type": "event"
    },
    {
      "anonymous": false,
      "inputs": [
        {
          "indexed": true,
          "internalType": "uint256",
          "name": "cropId",
          "type": "uint256"
        },
        {
          "indexed": true,
          "internalType": "address",
          "name": "farmer",
          "type": "address"
        },
        {
          "indexed": false,
          "internalType": "uint256",
          "name": "pricePerUnit",
          "type": "uint256"
        },
        {
          "indexed": false,
          "internalType": "uint256",
          "name": "quantity",
          "type": "uint256"
        },
        {
          "indexed": false,
          "internalType": "uint256",
          "name": "expiry",
          "type": "uint256"
        },
        {
          "indexed": false,
          "internalType": "string",
          "name": "offchainId",
          "type": "string"
        }
      ],
      "name": "CropListed",
      "type": "event"
    },
    {
      "anonymous": false,
      "inputs": [
        {
          "indexed": true,
          "internalType": "uint256",
          "name": "cropId",
          "type": "uint256"
        },
        {
          "indexed": true,
          "internalType": "address",
          "name": "buyer",
          "type": "address"
        },
        {
          "indexed": false,
          "internalType": "uint256",
          "name": "units",
          "type": "uint256"
        },
        {
          "indexed": false,
          "internalType": "uint256",
          "name": "value",
          "type": "uint256"
        }
      ],
      "name": "CropPurchased",
      "type": "event"
    },
    {
      "anonymous": false,
      "inputs": [
        {
          "indexed": true,
          "internalType": "address",
          "name": "previousOwner",
          "type": "address"
        },
        {
          "indexed": true,
          "internalType": "address",
          "name": "newOwner",
          "type": "address"
        }
      ],
      "name": "OwnershipTransferred",
      "type": "event"
    },
    {
      "anonymous": false,
      "inputs": [
        {
          "indexed": true,
          "internalType": "address",
          "name": "wallet",
          "type": "address"
        },
        {
          "indexed": false,
          "internalType": "bool",
          "name": "status",
          "type": "bool"
        }
      ],
      "name": "WalletBlacklisted",
      "type": "event"
    },
    {
      "inputs": [
        {
          "internalType": "address",
          "name": "",
          "type": "address"
        }
      ],
      "name": "blacklisted",
      "outputs": [
        {
          "internalType": "bool",
          "name": "",
          "type": "bool"
        }
      ],
      "stateMutability": "view",
      "type": "function"
    },
    {
      "inputs": [],
      "name": "cropCount",
      "outputs": [
        {
          "internalType": "uint256",
          "name": "",
          "type": "uint256"
        }
      ],
      "stateMutability": "view",
      "type": "function"
    },
    {
      "inputs": [
        {
          "internalType": "uint256",
          "name": "",
          "type": "uint256"
        }
      ],
      "name": "crops",
      "outputs": [
        {
          "internalType": "uint256",
          "name": "id",
          "type": "uint256"
        },
        {
          "internalType": "address",
          "name": "farmer",
          "type": "address"
        },
        {
          "internalType": "uint256",
          "name": "pricePerUnit",
          "type": "uint256"
        },
        {
          "internalType": "uint256",
          "name": "quantity",
          "type": "uint256"
        },
        {
          "internalType": "uint256",
          "name": "expiry",
          "type": "uint256"
        },
        {
          "internalType": "bool",
          "name": "isSold",
          "type": "bool"
        },
        {
          "internalType": "address",
          "name": "buyer",
          "type": "address"
        },
        {
          "internalType": "string",
          "name": "offchainId",
          "type": "string"
        }
      ],
      "stateMutability": "view",
      "type": "function"
    },
    {
      "inputs": [
        {
          "internalType": "address",
          "name": "farmer",
          "type": "address"
        },
        {
          "internalType": "uint256",
          "name": "pricePerUnit",
          "type": "uint256"
        },
        {
          "internalType": "uint256",
          "name": "quantity",
          "type": "uint256"
        },
        {
          "internalType": "uint256",
          "name": "expiry",
          "type": "uint256"
        },
        {
          "internalType": "string",
          "name": "offchainId",
          "type": "string"
        }
      ],
      "name": "listCrop",
      "outputs": [],
      "stateMutability": "nonpayable",
      "type": "function"
    },
    {
      "inputs": [],
      "name": "owner",
      "outputs": [
        {
          "internalType": "address",
          "name": "",
          "type": "address"
        }
      ],
      "stateMutability": "view",
      "type": "function"
    },
    {
      "inputs": [],
      "name": "pause",
      "outputs": [],
      "stateMutability": "nonpayable",
      "type": "function"
    },
    {
      "inputs": [],
      "name": "paused",
      "outputs": [
        {
          "internalType": "bool",
          "name": "",
          "type": "bool"
        }
      ],
      "stateMutability": "view",
      "type": "function"
    },
    {
      "inputs": [
        {
          "internalType": "uint256[]",
          "name": "cropIds",
          "type": "uint256[]"
        },
        {
          "internalType": "uint256[]",
          "name": "units",
          "type": "uint256[]"
        }
      ],
      "name": "purchaseBatch",
      "outputs": [],
      "stateMutability": "payable",
      "type": "function"
    },
    {
      "inputs": [
        {
          "internalType": "uint256",
          "name": "cropId",
          "type": "uint256"
        }
      ],
      "name": "purchaseCrop",
      "outputs": [],
      "stateMutability": "payable",
      "type": "function"
    },
    {
      "inputs": [
        {
          "internalType": "uint256",
          "name": "cropId",
          "type": "uint256"
        },
        {
          "internalType": "uint256",
          "name": "units",
          "type": "uint256"
        }
      ],
      "name": "purchaseUnits",
      "outputs": [],
      "stateMutability": "payable",
      "type": "function"
    },
    {
      "inputs": [],
      "name": "renounceOwnership",
      "outputs": [],
      "stateMutability": "nonpayable",
      "type": "function"
    },
    {
      "inputs": [
        {
          "internalType": "address",
          "name": "wallet",
          "type": "address"
        },
        {
          "internalType": "bool",
          "name": "status",
          "type": "bool"
        }
      ],
      "name": "setBlacklist",
      "outputs": [],
      "stateMutability": "nonpayable",
      "type": "function"
    },
    {
      "inputs": [
        {
          "internalType": "address",
          "name": "newOwner",
          "type": "address"
        }
      ],
      "name": "transferOwnership",
      "outputs": [],
      "stateMutability": "nonpayable",
      "type": "function"
    },
    {
      "inputs": [],
      "name": "unpause",
      "outputs": [],
      "stateMutability": "nonpayable",
      "type": "function"
    }
  ],
  "bytecode": "0x60806040523480156200001157600080fd5b5060405162002bbd38038062002bbd8339818101604052810190620000379190620001fb565b80600073ffffffffffffffffffffffffffffffffffffffff168173ffffffffffffffffffffffffffffffffffffffff1603620000ad5760006040517f1e4fbdf7000000000000000000000000000000000000000000000000000000008152600401620000a491906200023e565b60405180910390fd5b620000be81620000cd60201b60201c565b5060018081905550506200025b565b60008060009054906101000a900473ffffffffffffffffffffffffffffffffffffffff169050816000806101000a81548173ffffffffffffffffffffffffffffffffffffffff021916908373ffffffffffffffffffffffffffffffffffffffff1602179055508173ffffffffffffffffffffffffffffffffffffffff168173ffffffffffffffffffffffffffffffffffffffff167f8be0079c531659141344cd1fd0a4f28419497f9722a3daafe3b4186f6b6457e060405160405180910390a35050565b600080fd5b600073ffffffffffffffffffffffffffffffffffffffff82169050919050565b6000620001c38262000196565b9050919050565b620001d581620001b6565b8114620001e157600080fd5b50565b600081519050620001f581620001ca565b92915050565b60006020828403121562000214576200021362000191565b5b60006200022484828501620001e4565b91505092915050565b6200023881620001b6565b82525050565b60006020820190506200025560008301846200022d565b92915050565b612952806200026b6000396000f3fe6080604052600436106100dd5760003560e01c80638da5cb5b1161007f578063c901de1a11610059578063c901de1a1461024b578063dbac26e914610267578063dfd55a2c146102a4578063f2fde38b146102cf576100dd565b80638da5cb5b146101db5780639dfa693814610206578063c88f07071461022f576100dd565b80635c975abb116100bb5780635c975abb1461013e57806370c9f1a514610169578063715018a6146101ad5780638456cb59146101c4576100dd565b8063153b0d1e146100e25780632a7480971461010b5780633f4ba83a14610127575b600080fd5b3480156100ee57600080fd5b50610109600480360381019061010491906118d5565b6102f8565b005b6101256004803603810190610120919061194b565b6103a9565b005b34801561013357600080fd5b5061013c6104c7565b005b34801561014a57600080fd5b5061015361052f565b6040516101609190611987565b60405180910390f35b34801561017557600080fd5b50610190600480360381019061018b919061194b565b610542565b6040516101a4989796959493929190611a50565b60405180910390f35b3480156101b957600080fd5b506101c261065f565b005b3480156101d057600080fd5b506101d9610673565b005b3480156101e757600080fd5b506101f06106db565b6040516101fd9190611ad5565b60405180910390f35b34801561021257600080fd5b5061022d60048036038101906102289190611b55565b610704565b005b61024960048036038101906102449190611bef565b610ae2565b005b61026560048036038101906102609190611c85565b610bdf565b005b34801561027357600080fd5b5061028e60048036038101906102899190611d06565b61118f565b60405161029b9190611987565b60405180910390f35b3480156102b057600080fd5b506102b96111af565b6040516102c69190611d33565b60405180910390f35b3480156102db57600080fd5b506102f660048036038101906102f19190611d06565b6111b5565b005b61030061123b565b80600460008473ffffffffffffffffffffffffffffffffffffffff1673ffffffffffffffffffffffffffffffffffffffff16815260200190815260200160002060006101000a81548160ff0219169083151502179055508173ffffffffffffffffffffffffffffffffffffffff167f6e5e68466043e631629f40501adefa55dc080619353e9256cecbb1cc4997c1858260405161039d9190611987565b60405180910390a25050565b6103b16112c2565b600560009054906101000a900460ff1615610401576040517f08c379a00000000000000000000000000000000000000000000000000000000081526004016103f890611d9a565b60405180910390fd5b33600460008273ffffffffffffffffffffffffffffffffffffffff1673ffffffffffffffffffffffffffffffffffffffff16815260200190815260200160002060009054906101000a900460ff161561048f576040517f08c379a000000000000000000000000000000000000000000000000000000000815260040161048690611e06565b60405180910390fd5b60006003600084815260200190815260200160002090506000816003015490506104b98482611308565b5050506104c46114a1565b50565b6104cf61123b565b6000600560006101000a81548160ff0219169083151502179055503373ffffffffffffffffffffffffffffffffffffffff167f5b65b0c1363b3003db9bcc5e1fd8805a6d6bf5bf6dc9d3431ee4494cd7d1176660405160405180910390a2565b600560009054906101000a900460ff1681565b60036020528060005260406000206000915090508060000154908060010160009054906101000a900473ffffffffffffffffffffffffffffffffffffffff16908060020154908060030154908060040154908060050160009054906101000a900460ff16908060050160019054906101000a900473ffffffffffffffffffffffffffffffffffffffff16908060060180546105dc90611e55565b80601f016020809104026020016040519081016040528092919081815260200182805461060890611e55565b80156106555780601f1061062a57610100808354040283529160200191610655565b820191906000526020600020905b81548152906001019060200180831161063857829003601f168201915b5050505050905088565b61066761123b565b61067160006114aa565b565b61067b61123b565b6001600560006101000a81548160ff0219169083151502179055503373ffffffffffffffffffffffffffffffffffffffff167f81990fd9a5c552b8e3677917d8a03c07678f0d2cb68f88b634aca2022e9bd19f60405160405180910390a2565b60008060009054906101000a900473ffffffffffffffffffffffffffffffffffffffff16905090565b61070c61123b565b600560009054906101000a900460ff161561075c576040517f08c379a000000000000000000000000000000000000000000000000000000000815260040161075390611d9a565b60405180910390fd5b85600460008273ffffffffffffffffffffffffffffffffffffffff1673ffffffffffffffffffffffffffffffffffffffff16815260200190815260200160002060009054906101000a900460ff16156107ea576040517f08c379a00000000000000000000000000000000000000000000000000000000081526004016107e190611e06565b60405180910390fd5b42841161082c576040517f08c379a000000000000000000000000000000000000000000000000000000000815260040161082390611ed2565b60405180910390fd5b6000861161086f576040517f08c379a000000000000000000000000000000000000000000000000000000000815260040161086690611f3e565b60405180910390fd5b600085116108b2576040517f08c379a00000000000000000000000000000000000000000000000000000000081526004016108a990611faa565b60405180910390fd5b6001600260008282546108c59190611ff9565b9250508190555060405180610100016040528060025481526020018873ffffffffffffffffffffffffffffffffffffffff168152602001878152602001868152602001858152602001600015158152602001600073ffffffffffffffffffffffffffffffffffffffff16815260200184848080601f016020809104026020016040519081016040528093929190818152602001838380828437600081840152601f19601f820116905080830192505050505050508152506003600060025481526020019081526020016000206000820151816000015560208201518160010160006101000a81548173ffffffffffffffffffffffffffffffffffffffff021916908373ffffffffffffffffffffffffffffffffffffffff16021790555060408201518160020155606082015181600301556080820151816004015560a08201518160050160006101000a81548160ff02191690831515021790555060c08201518160050160016101000a81548173ffffffffffffffffffffffffffffffffffffffff021916908373ffffffffffffffffffffffffffffffffffffffff16021790555060e0820151816006019081610a7c9190612208565b509050508673ffffffffffffffffffffffffffffffffffffffff166002547fe1079449428113647f4176cd8ba129f3a87ead1951129310615f8dff3bd5e9a68888888888604051610ad1959493929190612316565b60405180910390a350505050505050565b610aea6112c2565b600560009054906101000a900460ff1615610b3a576040517f08c379a0000000000000000000000000000000000000000000000000000000008152600401610b3190611d9a565b60405180910390fd5b33600460008273ffffffffffffffffffffffffffffffffffffffff1673ffffffffffffffffffffffffffffffffffffffff16815260200190815260200160002060009054906101000a900460ff1615610bc8576040517f08c379a0000000000000000000000000000000000000000000000000000000008152600401610bbf90611e06565b60405180910390fd5b610bd28383611308565b50610bdb6114a1565b5050565b610be76112c2565b600560009054906101000a900460ff1615610c37576040517f08c379a0000000000000000000000000000000000000000000000000000000008152600401610c2e90611d9a565b60405180910390fd5b33600460008273ffffffffffffffffffffffffffffffffffffffff1673ffffffffffffffffffffffffffffffffffffffff16815260200190815260200160002060009054906101000a900460ff1615610cc5576040517f08c379a0000000000000000000000000000000000000000000000000000000008152600401610cbc90611e06565b60405180910390fd5b60008585905011610d0b576040517f08c379a0000000000000000000000000000000000000000000000000000000008152600401610d02906123b0565b60405180910390fd5b828290508585905014610d53576040517f08c379a0000000000000000000000000000000000000000000000000000000008152600401610d4a9061241c565b60405180910390fd5b60006003600087876000818110610d6d57610d6c61243c565b5b90506020020135815260200190815260200160002060010160009054906101000a900473ffffffffffffffffffffffffffffffffffffffff169050600073ffffffffffffffffffffffffffffffffffffffff168173ffffffffffffffffffffffffffffffffffffffff1603610e17576040517f08c379a0000000000000000000000000000000000000000000000000000000008152600401610e0e906124b7565b60405180910390fd5b6000805b87879050811015610f6d576000600360008a8a85818110610e3f57610e3e61243c565b5b90506020020135815260200190815260200160002090506000816000015403610e9d576040517f08c379a0000000000000000000000000000000000000000000000000000000008152600401610e94906124b7565b60405180910390fd5b8373ffffffffffffffffffffffffffffffffffffffff168160010160009054906101000a900473ffffffffffffffffffffffffffffffffffffffff1673ffffffffffffffffffffffffffffffffffffffff1614610f2f576040517f08c379a0000000000000000000000000000000000000000000000000000000008152600401610f2690612523565b60405180910390fd5b610f5281888885818110610f4657610f4561243c565b5b9050602002013561156e565b83610f5d9190611ff9565b9250508080600101915050610e1b565b50803414610fb0576040517f08c379a0000000000000000000000000000000000000000000000000000000008152600401610fa79061258f565b60405180910390fd5b60005b878790508110156110d0576000600360008a8a85818110610fd757610fd661243c565b5b905060200201358152602001908152602001600020905060008787848181106110035761100261243c565b5b90506020020135826002015461101991906125af565b905061103e828989868181106110325761103161243c565b5b905060200201356117a1565b3373ffffffffffffffffffffffffffffffffffffffff168a8a858181106110685761106761243c565b5b905060200201357f0a4352b1d4903ed52cfab309159e5f76ba15237a9c58444bb4b875a873c713f58a8a878181106110a3576110a261243c565b5b90506020020135846040516110b99291906125f1565b60405180910390a350508080600101915050610fb3565b5060008273ffffffffffffffffffffffffffffffffffffffff16826040516110f79061264b565b60006040518083038185875af1925050503d8060008114611134576040519150601f19603f3d011682016040523d82523d6000602084013e611139565b606091505b505090508061117d576040517f08c379a0000000000000000000000000000000000000000000000000000000008152600401611174906126ac565b60405180910390fd5b505050506111896114a1565b50505050565b60046020528060005260406000206000915054906101000a900460ff1681565b60025481565b6111bd61123b565b600073ffffffffffffffffffffffffffffffffffffffff168173ffffffffffffffffffffffffffffffffffffffff160361122f5760006040517f1e4fbdf70000000000000000000000000000000000000000000000000000000081526004016112269190611ad5565b60405180910390fd5b611238816114aa565b50565b61124361182d565b73ffffffffffffffffffffffffffffffffffffffff166112616106db565b73ffffffffffffffffffffffffffffffffffffffff16146112c05761128461182d565b6040517f118cdaa70000000000000000000000000000000000000000000000000000000081526004016112b79190611ad5565b60405180910390fd5b565b6002600154036112fe576040517f3ee5aeb500000000000000000000000000000000000000000000000000000000815260040160405180910390fd5b6002600181905550565b6000600360008481526020019081526020016000209050600061132b828461156e565b905080341461136f576040517f08c379a00000000000000000000000000000000000000000000000000000000081526004016113669061258f565b60405180910390fd5b61137982846117a1565b60008260010160009054906101000a900473ffffffffffffffffffffffffffffffffffffffff1673ffffffffffffffffffffffffffffffffffffffff16826040516113c39061264b565b60006040518083038185875af1925050503d8060008114611400576040519150601f19603f3d011682016040523d82523d6000602084013e611405565b606091505b5050905080611449576040517f08c379a0000000000000000000000000000000000000000000000000000000008152600401611440906126ac565b60405180910390fd5b3373ffffffffffffffffffffffffffffffffffffffff16857f0a4352b1d4903ed52cfab309159e5f76ba15237a9c58444bb4b875a873c713f586856040516114929291906125f1565b60405180910390a35050505050565b60018081905550565b60008060009054906101000a900473ffffffffffffffffffffffffffffffffffffffff169050816000806101000a81548173ffffffffffffffffffffffffffffffffffffffff021916908373ffffffffffffffffffffffffffffffffffffffff1602179055508173ffffffffffffffffffffffffffffffffffffffff168173ffffffffffffffffffffffffffffffffffffffff167f8be0079c531659141344cd1fd0a4f28419497f9722a3daafe3b4186f6b6457e060405160405180910390a35050565b6000808360000154036115b6576040517f08c379a00000000000000000000000000000000000000000000000000000000081526004016115ad906124b7565b60405180910390fd5b8260050160009054906101000a900460ff1615611608576040517f08c379a00000000000000000000000000000000000000000000000000000000081526004016115ff90612718565b60405180910390fd5b6000821161164b576040517f08c379a000000000000000000000000000000000000000000000000000000000815260040161164290612784565b60405180910390fd5b8260030154821115611692576040517f08c379a0000000000000000000000000000000000000000000000000000000008152600401611689906127f0565b60405180910390fd5b428360040154116116d8576040517f08c379a00000000000000000000000000000000000000000000000000000000081526004016116cf9061285c565b60405180910390fd5b600460008460010160009054906101000a900473ffffffffffffffffffffffffffffffffffffffff1673ffffffffffffffffffffffffffffffffffffffff1673ffffffffffffffffffffffffffffffffffffffff16815260200190815260200160002060009054906101000a900460ff1615611789576040517f08c379a0000000000000000000000000000000000000000000000000000000008152600401611780906128c8565b60405180910390fd5b81836002015461179991906125af565b905092915050565b808260030160008282546117b591906128e8565b9250508190555060008260030154036117e65760018260050160006101000a81548160ff0219169083151502179055505b338260050160016101000a81548173ffffffffffffffffffffffffffffffffffffffff021916908373ffffffffffffffffffffffffffffffffffffffff1602179055505050565b600033905090565b600080fd5b600080fd5b600073ffffffffffffffffffffffffffffffffffffffff82169050919050565b600061186a8261183f565b9050919050565b61187a8161185f565b811461188557600080fd5b50565b60008135905061189781611871565b92915050565b60008115159050919050565b6118b28161189d565b81146118bd57600080fd5b50565b6000813590506118cf816118a9565b92915050565b600080604083850312156118ec576118eb611835565b5b60006118fa85828601611888565b925050602061190b858286016118c0565b9150509250929050565b6000819050919050565b61192881611915565b811461193357600080fd5b50565b6000813590506119458161191f565b92915050565b60006020828403121561196157611960611835565b5b600061196f84828501611936565b91505092915050565b6119818161189d565b82525050565b600060208201905061199c6000830184611978565b92915050565b6119ab81611915565b82525050565b6119ba8161185f565b82525050565b600081519050919050565b600082825260208201905092915050565b60005b838110156119fa5780820151818401526020810190506119df565b60008484015250505050565b6000601f19601f8301169050919050565b6000611a22826119c0565b611a2c81856119cb565b9350611a3c8185602086016119dc565b611a4581611a06565b840191505092915050565b600061010082019050611a66600083018b6119a2565b611a73602083018a6119b1565b611a8060408301896119a2565b611a8d60608301886119a2565b611a9a60808301876119a2565b611aa760a0830186611978565b611ab460c08301856119b1565b81810360e0830152611ac68184611a17565b90509998505050505050505050565b6000602082019050611aea60008301846119b1565b92915050565b600080fd5b600080fd5b600080fd5b60008083601f840112611b1557611b14611af0565b5b8235905067ffffffffffffffff811115611b3257611b31611af5565b5b602083019150836001820283011115611b4e57611b4d611afa565b5b9250929050565b60008060008060008060a08789031215611b7257611b71611835565b5b6000611b8089828a01611888565b9650506020611b9189828a01611936565b9550506040611ba289828a01611936565b9450506060611bb389828a01611936565b935050608087013567ffffffffffffffff811115611bd457611bd361183a565b5b611be089828a01611aff565b92509250509295509295509295565b60008060408385031215611c0657611c05611835565b5b6000611c1485828601611936565b9250506020611c2585828601611936565b9150509250929050565b60008083601f840112611c4557611c44611af0565b5b8235905067ffffffffffffffff811115611c6257611c61611af5565b5b602083019150836020820283011115611c7e57611c7d611afa565b5b9250929050565b60008060008060408587031215611c9f57611c9e611835565b5b600085013567ffffffffffffffff811115611cbd57611cbc61183a565b5b611cc987828801611c2f565b9450945050602085013567ffffffffffffffff811115611cec57611ceb61183a565b5b611cf887828801611c2f565b925092505092959194509250565b600060208284031215611d1c57611d1b611835565b5b6000611d2a84828501611888565b91505092915050565b6000602082019050611d4860008301846119a2565b92915050565b7f4d61726b6574706c616365207061757365640000000000000000000000000000600082015250565b6000611d846012836119cb565b9150611d8f82611d4e565b602082019050919050565b60006020820190508181036000830152611db381611d77565b9050919050565b7f57616c6c657420626c61636b6c69737465640000000000000000000000000000600082015250565b6000611df06012836119cb565b9150611dfb82611dba565b602082019050919050565b60006020820190508181036000830152611e1f81611de3565b9050919050565b7f4e487b7100000000000000000000000000000000000000000000000000000000600052602260045260246000fd5b60006002820490506001821680611e6d57607f821691505b602082108103611e8057611e7f611e26565b5b50919050565b7f457870697279206d757374206265206675747572650000000000000000000000600082015250565b6000611ebc6015836119cb565b9150611ec782611e86565b602082019050919050565b60006020820190508181036000830152611eeb81611eaf565b9050919050565b7f5072696365207265717569726564000000000000000000000000000000000000600082015250565b6000611f28600e836119cb565b9150611f3382611ef2565b602082019050919050565b60006020820190508181036000830152611f5781611f1b565b9050919050565b7f5175616e74697479207265717569726564000000000000000000000000000000600082015250565b6000611f946011836119cb565b9150611f9f82611f5e565b602082019050919050565b60006020820190508181036000830152611fc381611f87565b9050919050565b7f4e487b7100000000000000000000000000000000000000000000000000000000600052601160045260246000fd5b600061200482611915565b915061200f83611915565b925082820190508082111561202757612026611fca565b5b92915050565b7f4e487b7100000000000000000000000000000000000000000000000000000000600052604160045260246000fd5b60008190508160005260206000209050919050565b60006020601f8301049050919050565b600082821b905092915050565b6000600883026120be7fffffffffffffffffffffffffffffffffffffffffffffffffffffffffffffffff82612081565b6120c88683612081565b95508019841693508086168417925050509392505050565b6000819050919050565b60006121056121006120fb84611915565b6120e0565b611915565b9050919050565b6000819050919050565b61211f836120ea565b61213361212b8261210c565b84845461208e565b825550505050565b600090565b61214861213b565b612153818484612116565b505050565b5b818110156121775761216c600082612140565b600181019050612159565b5050565b601f8211156121bc5761218d8161205c565b61219684612071565b810160208510156121a5578190505b6121b96121b185612071565b830182612158565b50505b505050565b600082821c905092915050565b60006121df600019846008026121c1565b1980831691505092915050565b60006121f883836121ce565b9150826002028217905092915050565b612211826119c0565b67ffffffffffffffff81111561222a5761222961202d565b5b6122348254611e55565b61223f82828561217b565b600060209050601f8311600181146122725760008415612260578287015190505b61226a85826121ec565b8655506122d2565b601f1984166122808661205c565b60005b828110156122a857848901518255600182019150602085019450602081019050612283565b868310156122c557848901516122c1601f8916826121ce565b8355505b6001600288020188555050505b505050505050565b82818337600083830152505050565b60006122f583856119cb565b93506123028385846122da565b61230b83611a06565b840190509392505050565b600060808201905061232b60008301886119a2565b61233860208301876119a2565b61234560408301866119a2565b81810360608301526123588184866122e9565b90509695505050505050565b7f456d707479206261746368000000000000000000000000000000000000000000600082015250565b600061239a600b836119cb565b91506123a582612364565b602082019050919050565b600060208201905081810360008301526123c98161238d565b9050919050565b7f4d69736d61746368656420626174636800000000000000000000000000000000600082015250565b60006124066010836119cb565b9150612411826123d0565b602082019050919050565b60006020820190508181036000830152612435816123f9565b9050919050565b7f4e487b7100000000000000000000000000000000000000000000000000000000600052603260045260246000fd5b7f43726f70206e6f7420666f756e64000000000000000000000000000000000000600082015250565b60006124a1600e836119cb565b91506124ac8261246b565b602082019050919050565b600060208201905081810360008301526124d081612494565b9050919050565b7f446966666572656e74206661726d657200000000000000000000000000000000600082015250565b600061250d6010836119cb565b9150612518826124d7565b602082019050919050565b6000602082019050818103600083015261253c81612500565b9050919050565b7f496e636f7272656374207061796d656e74000000000000000000000000000000600082015250565b60006125796011836119cb565b915061258482612543565b602082019050919050565b600060208201905081810360008301526125a88161256c565b9050919050565b60006125ba82611915565b91506125c583611915565b92508282026125d381611915565b915082820484148315176125ea576125e9611fca565b5b5092915050565b600060408201905061260660008301856119a2565b61261360208301846119a2565b9392505050565b600081905092915050565b50565b600061263560008361261a565b915061264082612625565b600082019050919050565b600061265682612628565b9150819050919050565b7f5061796d656e74206661696c6564000000000000000000000000000000000000600082015250565b6000612696600e836119cb565b91506126a182612660565b602082019050919050565b600060208201905081810360008301526126c581612689565b9050919050565b7f416c726561647920736f6c640000000000000000000000000000000000000000600082015250565b6000612702600c836119cb565b915061270d826126cc565b602082019050919050565b60006020820190508181036000830152612731816126f5565b9050919050565b7f556e697473207265717569726564000000000000000000000000000000000000600082015250565b600061276e600e836119cb565b915061277982612738565b602082019050919050565b6000602082019050818103600083015261279d81612761565b9050919050565b7f496e73756666696369656e74207175616e746974790000000000000000000000600082015250565b60006127da6015836119cb565b91506127e5826127a4565b602082019050919050565b60006020820190508181036000830152612809816127cd565b9050919050565b7f43726f7020657870697265640000000000000000000000000000000000000000600082015250565b6000612846600c836119cb565b915061285182612810565b602082019050919050565b6000602082019050818103600083015261287581612839565b9050919050565b7f4661726d657220626c61636b6c69737465640000000000000000000000000000600082015250565b60006128b26012836119cb565b91506128bd8261287c565b602082019050919050565b600060208201905081810360008301526128e1816128a5565b9050919050565b60006128f382611915565b91506128fe83611915565b925082820390508181111561291657612915611fca565b5b9291505056fea2646970667358221220574bb477dff5d923e4da362de40ac8b12035c700d5bd97e78dee3e44043adab364736f6c63430008180033",
  "linkReferences": {},
  "deployedLinkReferences": {}
}